:02000004085F93
:10E0000000E05F08FCFF5F0800000600200005013B
:08E0100004010D1700000000DF
:10E018001348144908B5884205D0134A824202D0F1
:10E02800124B121A98471248124A0021124B121A20
:10E03800984712481249884205D0124A824202D0B3
:10E048000A4B121A984710481049884205D0104ABE
:10E05800824202D0054B121A9847014808BD00BFFA
:10E0680060AC0710A8F85F08D4AC07102D0D11108C
:10E07800D4AC0710FCAF0710A10E1110F8E73F024F
:10E08800A8E05F0800E83F0200E83F02B0E05F0850
:0CE09800F8FF3F0219E05F0800000000E4
:08E0A8009CE05F08A4FD3F02AB
:10E0B000034613F8012B002AFBD1181A01387047C8
:10E0C00070B501F05BF80025054E064CA41BA408B2
:10E0D000AC4200D170BD56F8043B98470135F7E7D4
:10E0E000D0FF3F02F8FF3F0200F024B808B500F06F
:10E0F00081F8BDE8084000F0F9BF00F0D1BB00F0A6
:10E10000DDBB0078B0FA80F040097047012303704E
:10E11000704738B50D4614460146072001F0C1F896
:10E120002946062001F0BDF82146BDE8384005200B
:10E1300001F0B7B808B500F049FF4FF4165100F0F0
:10E1400039FF00210B2001F089F8BDE8084000F0FC
:10E15000C7BA000008B50B2001F091F8064A07493C
:10E16000136841F823006421013393FBF1F001FBB4
:10E170001033136008BD00BF78AE0710E8AC07107D
:10E18000002238B5174B11461C681346164850F844
:10E19000045BA54221DB09B9012101330132642A64
:10E1A000F5D106225343114C236000F00FFF1049B4
:10E1B00000F0D0FD00F00AFF24680546002C0EDABE
:10E1C0002D2100F0CBFD614228460A2200F0D5FD4A
:10E1D0002846BDE8384000F0C4BD0021DEE72146F6
:10E1E000F2E700BF64AC0710E8AC0710E0AC071022
:10E1F000B4FD3F0273B500F05FF8184B184A186081
:10E200001368C31A632B04D91060FFF7A3FFFFF74D
:10E21000B7FF144E306864280ADD0022FF20114643
:10E22000FFF777FF642002B0BDE8704000F07CBBD0
:10E230000025FF2364222946009500F069FBFF2397
:10E24000044664223221009330682B4600F060FBC4
:10E2500022460146C4F1FF00E2E700BFE4AC07102C
:10E260007CAE0710E0AC07100022044B0120C3E98C
:10E270000022A2F580329A6000F0FAB9D4AC0710FF
:10E2800009B504480068044B03441B685B6C0293A7
:10E2900009BD000060AC07103000000009B504485B
:10E2A0000068044B03441B685B68029309BD0000CF
:10E2B00060AC07100000000009B504480068044B7A
:10E2C00003441B685B69029309BD000060AC071042
:10E2D0000000000009B504480068044B03441B68B3
:10E2E0005B68029309BD000060AC071014000000D9
:10E2F00009B504480068044B03441B689B680293FB
:10E3000009BD000060AC07101400000009B5044806
:10E310000068044B03441B68DB68029309BD0000DE
:10E3200060AC07101400000009B504480068044BF5
:10E3300003441B689B6A029309BD000060AC071090
:10E340001400000009B504480068044B03441B682E
:10E350001B6B029309BD000060AC071014000000A5
:10E3600009B504480068044B03441B689B6F029383
:10E3700009BD000060AC07101400000009B5044896
:10E380000068044B03441B681B6A029309BD00002C
:10E3900060AC07101000000009B504480068044B89
:10E3A00003441B685B6A029309BD000060AC071060
:10E3B0001000000009B504480068044B03441B68C2
:10E3C0009B6A029309BD000060AC071010000000BA
:10E3D00009B504480068044B03441B68DB6A0293D8
:10E3E00009BD000060AC07101000000009B504482A
:10E3F0000068044B03441B681B6B029309BD0000BB
:10E4000060AC07101000000009B504480068044B18
:10E4100003441B685B6B029309BD000060AC0710EE
:10E420001000000009B504480068044B03441B6851
:10E430001B6C029309BD000060AC071010000000C7
:10E4400009B504480068044B03441B685B690293E8
:10E4500009BD000060AC07104C00000009B504487D
:10E460000068044B03441B689B68029309BD0000CD
:10E4700060AC07105000000009B504480068044B68
:10E4800003441B68DB68029309BD000060AC071001
:10E490005000000009B504480068044B03441B68A1
:10E4A000DB69029309BD000060AC07101800000092
:10E4B00009B504480068044B03441B681B6A0293B7
:10E4C00009BD000060AC07101800000009B5044841
:10E4D0000068044B03441B68DB68029309BD00001D
:10E4E00060AC07102400000009B504480068044B24
:10E4F00003441B681B69029309BD000060AC071050
:10E500002400000009B504480068044B03441B685C
:10E510005B69029309BD000060AC07102400000095
:10E5200009B504480068044B03441B689B690293C7
:10E5300009BD000060AC07102400000009B50448C4
:10E540000068044B03441B68DB69029309BD0000AB
:10E5500060AC07102400000009B504480068044BB3
:10E5600003441B681B6A029309BD000060AC0710DE
:10E570002400000009B504480068044B03441B68EC
:10E580009B6A029309BD000060AC071024000000E4
:10E5900009B504480068044B03441B681B6C0293D4
:10E5A00009BD000060AC07102400000009B5044854
:10E5B0000068044B03441B681B68029309BD0000FC
:10E5C00060AC07103400000009B504480068044B33
:10E5D00003441B685B68029309BD000060AC071030
:10E5E0003400000009B504480068044B03441B686C
:10E5F0001B69029309BD000060AC071034000000E5
:10E6000009B504480068044B03441B685B69029326
:10E6100009BD000060AC07103400000009B50448D3
:10E620000068044B03441B689B69029309BD00000A
:10E6300060AC07103400000009B504480068044BC2
:10E6400003441B68DB69029309BD000060AC07103E
:10E650003400000009B504480068044B03441B68FB
:10E660001B6A029309BD000060AC07103400000073
:10E6700009B504480068044B03441B685B680293B7
:10E6800009BD000060AC07100800000009B504488F
:10E690000068044B03441B685B69029309BD0000DA
:10E6A00060AC07100800000009B504480068044B7E
:10E6B00003441B68D3F88830029309BD60AC07108F
:10E6C0000800000009B504480068044B03441B68B7
:10E6D000D3F89430029309BD60AC07100800000025
:10E6E00009B504480068044B03441B68DB680293C7
:10E6F00009BD000060AC07102C00000009B50448FB
:10E700000068044B03441B68DB6B029309BD0000E7
:10E7100060AC07102C00000009B504480068044BE9
:10E7200003441B685B68029309BD000060AC0710DE
:10E730002800000009B504480068044B03441B6826
:10E740009B68029309BD000060AC07102800000020
:10E7500009B504480068044B03441B68DB68029356
:10E7600009BD000060AC07102800000009B504488E
:10E770000068044B03441B681B69029309BD000039
:10E7800060AC07102800000009B504480068044B7D
:10E7900003441B685B69029309BD000060AC07106D
:10E7A0002800000009B504480068044B03441B68B6
:10E7B0009B69029309BD000060AC071028000000AF
:10E7C00009B504480068044B03441B68DB690293E5
:10E7D00009BD000060AC07102800000009B504481E
:10E7E0000068044B03441B681B6A029309BD0000C8
:10E7F00060AC07102800000009B504480068044B0D
:10E8000003441B681B6B029309BD000060AC07103A
:10E810002800000009B504480068044B03441B6845
:10E820005B6B029309BD000060AC0710280000007C
:10E8300009B504480068044B03441B681B6C029331
:10E8400009BD000060AC07102800000009B50448AD
:10E850000068044B03441B685B6C029309BD000015
:10E8600060AC07102800000009B504480068044B9C
:10E8700003441B685B6D029309BD000060AC071088
:10E880002800000009B504480068044B03441B68D5
:10E890009B6D029309BD000060AC071028000000CA
:10E8A00009B504480068044B03441B681B680293C5
:10E8B00009BD000060AC07100400000009B5044861
:10E8C0000068044B03441B685B68029309BD0000A9
:10E8D00060AC07100400000009B504480068044B50
:10E8E00003441B681B6C029309BD000060AC071059
:10E8F0000400000009B504480068044B03441B6889
:10E900005B6C029309BD000060AC071004000000BE
:10E910008A4210B507D0441A0298C01A4443501ACC
:10E9200094FBF0F0184410BD0021FFF7AFBE0000CB
:10E93000002302480360FFF7A3BC00BF80AE0710AE
:10E94000002240681146FFF749BF00224068114687
:10E95000FFF760BF00224068FFF74EBF002240680B
:10E9600081F00101FFF72CBF002340681A461946C9
:10E97000FFF718BF002340681A461946FFF704BF87
:10E98000002240681146FFF7F1BE002240681146A0
:10E99000FFF7D0BE002202214068FFF7D9BE002356
:10E9A00040681A46FFF7B8BE0322024B5A60024A7B
:10E9B0001A60704784AE0710C4FD3F027047F8B577
:10E9C000064615460C468F18BC4206D033683046C2
:10E9D0009B6814F8011B9847F6E72846F8BD00220B
:10E9E000007CFFF7CBBC0021007CFFF7D5BC0021E9
:10E9F000007CFFF7DFBC0021007CFFF7E9BC0021B1
:10EA0000007CFFF7F3BC10B504461421FFF777FB39
:10EA1000204610BD38B5044615464FF47A730022DF
:10EA2000C4E90123094B0846217423602946FFF7F6
:10EA3000F9FCBF3008D16B69DB0705D56868FFF7C3
:10EA40003DFFE868FFF73AFF204638BD08FE3F0269
:10EA5000FF210022044B0120C3E9001264211A6146
:10EA6000C3E90201704700BF8CAE0710704710B5B4
:10EA700004461821FFF743FB204610BDF0B5037D87
:10EA80000E46062B4FF000048DB000F1040712D0A3
:10EA900000F1080515F8011D0A22304600F06DF955
:10EAA000AF42044419D0002CF4D02E21304600F09F
:10EAB00055F90444EEE72F236A4639460A208DF8BB
:10EAC0000040FFF7BDFC6846FFF7F2FA33680246E4
:10EAD00069463046DB689847044620460DB0F0BDD5
:10EAE00010B50446044B1122002140F8043B00F00D
:10EAF00012FD204610BD00BF34FE3F020346074A08
:10EB000010B543F8042B01F1100251F8044B914267
:10EB100043F8044BF9D10A781A7010BD34FE3F0255
:10EB200010B59DF8084044EA032343EA0242042357
:10EB300042EA01614160037510BD000007B5064B54
:10EB40000360CB7800938B784A780978FFF7E8FF69
:10EB500003B05DF804FB00BF34FE3F02014B024AE4
:10EB60001A607047A0AE071040FE3F0200234068C5
:10EB70001A46FFF7D1BD002202214068FFF7E8BD29
:10EB8000002240681146FFF7D5BD002240681146BB
:10EB9000FFF7ECBD002340681A461946FFF7F4BDA5
:10EBA000002340681A461946FFF7FCBD0021406863
:10EBB000FFF73EBE00214068FFF748BE00224068D4
:10EBC00081F00101FFF7FCBD00224068FFF714BE91
:10EBD000002240681146FFF71DBE00224068114622
:10EBE000FFF7FCBD00214068FFF74CBE2DE9F04364
:10EBF00095B014460D460746FFF772FF00211C2210
:10EC00000DA8009100F087FC402320460C930021C2
:10EC10006B460CAAFFF730FC044600284BD1024695
:10EC200001216868FFF7A2FD02218046224668683C
:10EC3000FFF79CFD21468146009E002E3BD0002917
:10EC400039D17368022B03D00A2B11D0F669F4E78F
:10EC5000B8F1000FFAD0716906A804313C1D07AD68
:10EC6000FFF76CFF0FCD0FC42B6841462370EDE713
:10EC7000B9F1000FEAD0102201A8746900F04BFC32
:10EC8000062301AD8DF8143004F1080318342A4628
:10EC900018685968083303C2A3421546F7D101A981
:10ECA00006A83C1D07ADFFF729FF0FCD0FC42B6849
:10ECB00049462370CAE70098FFF7D0FB384615B0E5
:10ECC000BDE8F083033802289ABF024B53F82000B6
:10ECD0000148704744FE3F02A4AE071008B5002269
:10ECE0004068FFF7C1FDBDE80840FFF7EBBF00003B
:10ECF000024B034A1A6000225A607047A4AE071004
:10ED000058FE3F02F8B506460D4600248F18BD4256
:10ED10000CD0336830469B6815F8011B9847031EDA
:10ED200001DB1C44F3E7002C08BF1C462046F8BD5D
:10ED300013B50446084659B10191FFF7B9F90246E7
:10ED4000204623680199DB6802B0BDE810401847EF
:10ED500002B010BD08B5FFF7EBFF08BD03689B6864
:10ED6000184738B50D210546FFF7F8FF0A2104467C
:10ED70002846FFF7F3FF204438BD0023012A98BF3F
:10ED80000A2230B58BB08DF8243009AC0D46B1FBAA
:10ED9000F2F101FB125303F0FF03092B94BF303350
:10EDA0003733DBB2AA4204F8013DEFD92146FFF721
:10EDB000BFFF0BB030BD00000022014B9A607047CE
:10EDC000ACAE071010B5044608462170FFF762FB91
:10EDD00000232046636010BD10B50446FFF76CFAAF
:10EDE000E060236820465B699847002808DAFFF74F
:10EDF00063FAE368C01AA3689842F2D34FF0FF3079
:10EE000010BD2DE9F04107460C460D468E18B5425F
:10EE1000A5EB040807D03846FFF7DEFF031E02DB30
:10EE200005F8013BF3E74046BDE8F08102220020EF
:10EE3000044B1A60044B054AC3E900009A60FFF7CF
:10EE400017BC00BFC8AE0710BCAE07100000FFFF24
:10EE5000024B1A68024B1A60704700BF68AC07107B
:10EE6000CCAE071070474174704708B5007CFFF7BF
:10EE700081FB20EAE07008BD08B5007CFFF734FB99
:10EE800020EAE07008BD08B5007CFFF749FB40EAC6
:10EE9000E07008BD08B5007CFFF734FB40EAE07085
:10EEA00008BD007CFFF74ABB37B5457C04462DB151
:10EEB000207C03B0BDE83040FFF708BB007C019127
:10EEC000FFF758FB00280199F2DC284603B030BD5B
:10EED00010B504461421FFF712F9204610BD0000BA
:10EEE00010B54FF47A730446084611460022C4E96F
:10EEF0000123044B2074236001236374FFF748FB54
:10EF0000204610BDB8FE3F02007CFFF725BB4174D0
:10EF100070477047704708B50021007CFFF77EFB03
:10EF200040EAE07008BD08B50121007CFFF776FBE0
:10EF300040EAE07008BD08B5007CFFF761FB20EAFD
:10EF4000E07008BD08B5007CFFF74CFB20EAE070DC
:10EF500008BD13B50446007C0191FFF751FB002862
:10EF6000019901DC607C20B1207CFFF765FB20EA81
:10EF7000E07002B010BD007CFFF76CBB10B504461A
:10EF80001421FFF7BCF8204610BD000010B54FF467
:10EF90007A73044608460021C4E90113044B207427
:10EFA0002360012311466374FFF700FB204610BD68
:10EFB000ECFE3F020022007CFFF706BB10B50446C2
:10EFC0001422002100F0A7FA204610BD10B588B029
:10EFD00003A8FFF7F3FF0C4CD4E88F1F11F00101D9
:10EFE0000FD120460191FFF78CF8019948B103AA8F
:10EFF0000648FFF7CBFF2046FFF788F8044800F0EB
:10F0000077FA024808B010BDD0AE0710D4AE071092
:10F0100063F63F02002240681146FFF7A7BB0022BB
:10F0200040681146FFF7DABB002240681146FFF73F
:10F03000F1BB00224068FFF7DFBB0022406881F08F
:10F040000101FFF7BDBB002340681A461946FFF7D0
:10F05000A9BB002340681A461946FFF795BB00225A
:10F0600040681146FFF766BB002202214068FFF7A7
:10F070006FBB002340681A46FFF74EBB0422024BC9
:10F080005A60024A1A607047E8AE071020FF3F023C
:10F09000014B1860704700BF6CAC071008B50F4BF0
:10F0A00043B1FFF793FF03681B699847002801DD10
:10F0B00000E000BF0A4B43B100F088F903681B6908
:10F0C0009847002801DD00E000BF064B0BB100F0BF
:10F0D000C3F9054B0BB100F0F5F908BD00000000C5
:10F0E00000000000000000000000000008B5FFF76D
:10F0F000D5FFFFF7E1F8014B186008BD04AF07101A
:10F100000548064A08B5121A054900F0F7F9054BFB
:10F11000054A1A6008BD00BF00B4071004B4071008
:10F120001CF95F0800B407101E1C279A002307B5BE
:10F130001A466FF077010093FFF7C4FA03B05DF849
:10F1400004FB000007B543880A2B08D0502B0BD1D5
:10F15000094B1B684BB103B05DF804EB1847FFF790
:10F16000E5FF03B05DF804FB00231A466FF077015A
:10F170000093FFF7A7FAF4E7F4AE0710002110B5EB
:10F180001148FFF7B7FB114B1A68114B9A420CBF9D
:10F19000012200220F4B1A7001D0FFF7B1FFFFF7D9
:10F1A0007DF8044600F0C0F90B4B13B1204600E097
:10F1B00000BF00210848FFF7A1FABDE81040002178
:10F1C0000648FFF771BA00BFE1F73F0200B407102D
:10F1D0001E1C279AF0AE07100000000095F83F02B1
:10F1E0001B2837B5044602D9002003B030BDA0F17A
:10F1F0000F03022B0BD9012821D800F093F800212E
:10F20000007CFFF701F980F00100C0B2EDE7114D7D
:10F21000D5E88F1F11F001010BD128460191FEF7AF
:10F2200070FF019928B10C48FFF7CCFD2846FEF786
:10F230006DFF094B1878FFF73BF90028D4D1083C43
:10F24000012C05D800F0C2F8007CFFF785F9DAE759
:10F250000120CAE7F8AE0710FCAE07101B2838B52E
:10F2600004460D460AD8FF2908D0FFF7B9FF28B198
:10F2700029462046BDE83840FFF73AB838BD10B5FA
:10F280000446FFF7ADFF50B103212046FFF722F8F7
:10F29000032804D12046BDE81040FFF753B80020F2
:10F2A00010BD38B504460D46FFF79AFFF0B10421B2
:10F2B0002046FFF70FF8042805D12046A9B2BDE883
:10F2C0003840FFF731B802212046FFF703F8022843
:10F2D0000CD12046FFF71AF8012801D0042805D1E7
:10F2E00029462046BDE83840FFF73AB838BD704798
:10F2F00038B50A4B044603600123094943612020C5
:10F3000000F0F4F82025606005492846A56000F06B
:10F31000EDF8C4E90305204638BD00BF1800010020
:10F320005CFF3F0230B50E4D87B0D5E88F1F11F05E
:10F33000010411D12846FEF7E4FE68B16846FFF7E4
:10F34000D7FF6A4621460748FFF764FB2846FEF7C9
:10F35000DDFE054800F0CCF8024807B030BD00BF24
:10F3600008AF07100CAF07103FFA3F0270470000CC
:10F3700038B5142504462A46002100F0CCF8258033
:10F380004025074928462581258200F0AFF8044929
:10F390006060284600F0AAF8E060204638BD00BF53
:10F3A0005CFF3F027047704710B50446FFF7E0FF6F
:10F3B000204610BD10B50446FFF7DAFF204610BD09
:10F3C00010B50446FFF7D4FF204610BD30B50E4DF2
:10F3D00087B0D5E88F1F11F0010411D12846FEF740
:10F3E00090FE68B101A8FFF7DFFF214601AA074898
:10F3F000FFF776FD2846FEF789FE054800F078F80D
:10F40000024807B030BD00BF20AF07102CAF071077
:10F41000BDFA3F0210B50D4C86B0D4E88F3FDB0734
:10F4200011D42046FEF76DFE68B101A8FFF7C2FFB8
:10F43000012101AA0648FFF753FD2046FEF766FEAC
:10F44000044800F055F8024806B010BD24AF07107C
:10F4500040AF0710F7FA3F0210B5FFF7DBFF074B8D
:10F46000044653B1FFF750FD38B1236820461B69AD
:10F470009847002801DD00E000BF10BD000000003B
:10F4800010B50D4C86B0D4E88F3FDB0711D4204671
:10F49000FEF737FE68B101A8FFF792FF022101AA2B
:10F4A0000648FFF71DFD2046FEF730FE044800F039
:10F4B0001FF8024806B010BD28AF071054AF071060
:10F4C000F5FA3F0210B5FFF7DBFF074B044653B1D7
:10F4D000FFF71AFD38B1236820461B6998470028BA
:10F4E00001DD00E000BF10BD00000000FEF705BE1A
:10F4F000002301461A46184600F044B80A44431E49
:10F50000914200D1704710B511F8014B914203F8B8
:10F51000014FF9D110BD02440346934200D1704718
:10F5200003F8011BF9E7000038B5104B04461D68CD
:10F53000AB6BB3B91820FFF7B3F90246A86320B943
:10F540000B4B42210B48FFF7C7F90B490B4BC0E9A6
:10F5500000130B4B002183600B2383810120C2E940
:10F560000401AB6B00221C615A6138BD6CAC071002
:10F570005DFF3F0274FF3F020E33CDAB34126DE6E8
:10F58000ECDE05002DE9F843DFF8BC8006461F4697
:10F590000D46D8F80000914600F058F8264B1C683C
:10F5A00034B9264C1C60264B13B11B68C4F8883054
:10F5B00063681F2B07DDD8F8000000F049F84FF012
:10F5C000FF30BDE8F8835EB3D4F8880088B91D4BDE
:10F5D00023B9D8F8000000F03AF8F0E74FF484704F
:10F5E000FFF75EF90028F4D00023C0E94033C4F8E7
:10F5F000880063680122022E40F8239002FA03F289
:10F6000000EB8301D0F8003143EA0203C0F8003177
:10F61000C1F8807002BFD0F804311343C0F8043140
:10F620006368D8F800005A1C0233626044F8235023
:10F6300000F00EF80020C4E7F4AF071068AF071021
:10F6400000000000F1EF3F02D0AC07107047704798
:10F650007047000011E83F0239E83F023DE83F02F1
:10F660000000000042504D3A200000000000000061
:10F6700000000000EFF03F02E5F03F02DBF03F0248
:10F68000D1F03F02C5F03F02B9F03F02FDF23F0268
:10F6900005F33F02ADF03F02A5F03F029BF03F02B1
:10F6A00091F03F022DF43F0235F33F023DF33F025C
:10F6B00000000000000000000DF13F0257F13F0282
:10F6C0002FF13F020FF13F0237F13F023FF13F02BE
:10F6D00047F13F024FF13F0253F53F0200000000A7
:10F6E00000000000CDF13F02BDF13F02BFF13F023B
:10F6F0006170700084AE0710E8AE0710A4AE07106A
:10F700000000000000000000BDF23F02C7F23F020F
:10F71000D1F23F02DBF23F02E5F23F02F1F23F029B
:10F72000FDF23F0205F33F020DF33F0219F33F02E2
:10F7300021F33F022BF33F022DF43F0235F33F024A
:10F740003DF33F0225592D256D2D25645425483A5A
:10F75000254D3A2553257A0061736374696D650000
:10F760000000000000000000B5F53F0221F63F0256
:10F77000F9F53F0255F43F02C9F53F02E5F53F02B6
:10F78000D7F53F02F3F53F0253F53F02B7F53F02CD
:10F79000BBF53F02000000000000000065F63F02DC
:10F7A000CDF63F02A3F63F0255F43F0295F63F0225
:10F7B00067F63F0277F63F02C7F63F0253F53F0276
:10F7C00087F63F025FF63F020000000000000000E5
:10F7D000C3F73F02B9F73F02AFF73F0265F73F02B9
:10F7E000A3F73F0297F73F02FDF23F0205F33F0206
:10F7F0008BF73F0283F73F0279F73F026FF73F0233
:10F800002DF43F0235F33F023DF33F0200524545E0
:10F810004E54206D616C6C6F632073756363656516
:10F82000646564002F746D702F6A656E6B696E730A
:10F830002D4743432D31302D706970656C696E65BD
:10F840002D34385F32303230313132345F3136303E
:10F85000363138303633392F7372632F6E65776CDB
:10F8600069622F6E65776C69622F6C6962632F73B2
:10F8700074646C69622F72616E642E630000000014
:10F88000B9E93F0281F03F02F9F03F02A1F13F02E6
:10F89000ADF23F0241F43F0209F53F027DF53F0220
:08F8A000A1F53F02CDF73F0284
:10F8A8000000000200080000A8FE3F0270AC07102C
:10F8B8000000000000000000000000000000000040
:10F8C8000000000000000000000000000000000030
:10F8D8000000000000000000000000000000000020
:10F8E8000000000000000000000000000000000010
:10F8F8000000000000000000000000000000000000
:10F9080000000000000000000000000000000000EF
:04F91800F8AF07102D
:04F91C0000000000E7
:10FFBE000200100000E05F08A8E05F08F8E73F02CB
:10FFCE0001000A00FFFFFFFFFFFF00000102030414
:10FFDE0005060708090A0B0C0D0E0F10111213144B
:0EFFEE0015161718191A1B1C1D1E1F203E0089
:04FFFC0078563412ED
:04000005085FE01898
:00000001FF
